:100000000C943F010C945C010C945C010C945C0119
:100010000C945C010C945C010C945C010C945C01EC
:100020000C945C010C945C010C945C010C945C01DC
:100030000C945C010C945C010C945C010C945C01CC
:100040000C945C010C945C010C94B9080C945C0158
:100050000C945C010C945C010C945C010C945C01AC
:100060000C945C010C945C010C945C010C945C019C
:100070000C94ED080C945C010C945C010C945C01F4
:100080000C945C010C945C010C945C010C945C017C
:100090000C945C010C945C010C945C010C945C016C
:1000A0000C945C010C945C010C945C010C945C015C
:1000B0000C945C010A52656365697665642064612D
:1000C00074612066726F6D205553415254313D3D2D
:1000D0003E52533438353A0A000A526563656976F0
:1000E000656420646174612066726F6D20525334C0
:1000F00038353D3D3E5553415254313A0A000A4885
:10010000656C6C6F2043483136206F6E20556172EC
:100110007431210925732025730A000A48656C6C27
:100120006F2043483136206F6E20525334383521CA
:100130000925732025730A002530325820000A2033
:100140003078253034583A2000546869732046527C
:10015000414D2063616E2073746F72652025752098
:1001600062797465730A00466F756E64206D6178FC
:1001700020616464726573732100493243204652E2
:10018000414D206E6F74206964656E74696669659F
:1001900064202E2E2E20636865636B20796F757244
:1001A00020636F6E6E656374696F6E733F0D0A0036
:1001B00054657374696E672073697A65210A005209
:1001C00065737461727465642025752074696D654A
:1001D00073202575200A00466F756E6420493243EE
:1001E000204652414D0A00646F6E650A004E6F2032
:1001F000493243206465766963657320666F756E66
:10020000640A00556E6B6E6F776E206572726F7246
:1002100020256420617420616464726573732030EA
:100220007825580A00493243206465766963652061
:10023000666F756E642061742061646472657373A7
:10024000203078255820210A005363616E6E696E54
:100250006720646576696365732E2E2E0A004170EF
:1002600070206572726F7221206572726F725F63A7
:100270006F6465203D203078253032580A00112403
:100280001FBECFEFD8E0DEBFCDBF11E0A0E0B1E0F0
:10029000E8EFF6E102C005900D92A631B107D9F75B
:1002A00025E0A6E1B1E001C01D92A832B207E1F756
:1002B0000E94BA030C947A0B0C9400008A3019F453
:1002C0008DE001D08AE0FF93EF93E0911601F09169
:1002D0001701309709F00995EF91FF910895FC01FE
:1002E0008591803011F0EADFFBCF0895FF27E0E22F
:1002F00030E247FF0CC0419597FF09C0EDE26095E1
:10030000709580959095611D711D811D911D27FF30
:1003100002C0219530E350E2AA27660F771F881F9D
:10032000991FAA1FA41710F0A41B63955A95A9F74B
:10033000AA3008F0A95FA05DAF93F3956115710530
:100340008105910541F7ED3211F4EF93F395F21722
:1003500018F43F93F395FBCF8F91B0DFFA95E1F757
:100360000895E991F9918591803021F0853219F055
:10037000A5DFF9CF089520E0E89455915532C1F3F7
:10038000503311F4689455915A3348F4505390F314
:10039000220F022E220F220F200D250FF4CF0EF474
:1003A000219589919991533619F3533729F1533592
:1003B00059F1BC0188279927E8945C3621F489918A
:1003C000999168945591543639F446EF7EF077FF51
:1003D0000DC08FEF9FEF0AC055374AE039F058350E
:1003E00040E121F0523642E009F00895FF93EF9387
:1003F0007DDFEF91FF91B7CFFF93EF93FC018191E8
:100400008030B9F35BDFFBCFFF93EF9368DFF1CF71
:10041000DF93CF93CDB7DEB72596A3DFCF91DF91E2
:100420000895F70181937F010895DF93CF93CDB7AE
:10043000DEB72596E0911601F0911701EF93FF9337
:10044000E1E1F2E0E0931601F0931701FF92EF92E1
:10045000E990F99086DFF7011082EF90FF90FF910D
:10046000EF91E0931601F0931701CF91DF9108957A
:100470000B01DC01ED91FD912227332744275527FD
:10048000E8949AE001C0319660816032E1F3A8F10E
:100490006D3211F46894F7CF6A3378F5603368F100
:1004A00071F498E031966081613248F1623611F45E
:1004B00092E003C0683719F490E1319660816132AF
:1004C000F0F0613608F060526053B8F06A3018F00E
:1004D00067506A3090F0691780F481E2771B08F466
:1004E000790F769557954795379527958A95B9F75A
:1004F000260F381F481F581FE0CF80E001C081E061
:100500004EF466272095309540955095261F361F4E
:10051000461F561FFE93EE93D0012D933D934D93AE
:100520005D9311240895DF92EF92FF920F931F9332
:10053000CF93DF9389E492E09F938F930E94080208
:100540000F900F90C1E0D0E0D12C0F2EF3E0EF2EF2
:10055000F2E0FF2EF02D05E212E08C2F0E949D07A5
:100560009C01813061F4DF93CF931F930F930E941E
:100570000802D3940F900F900F900F9011C0843009
:1005800079F4DF93CF9333273F932F93FF92EF922A
:100590000E9408020F900F900F900F900F900F90F5
:1005A0008FE19EE40197F1F700C000002196CF375C
:1005B000D10599F6D11009C08DEE91E09F938F93EC
:1005C0000E9408020F900F9008C087EE91E09F9361
:1005D0008F930E9408020F900F90DF91CF911F918F
:1005E0000F91FF90EF90DF900895BF92CF92DF922E
:1005F000EF92FF920F931F93CF93DF93729880E552
:100600000E949D070197A9F587ED91E09F938F9335
:100610000E94080260E070E080E50E94870611E019
:10062000180F012F00951F920F931F921F938FEBAE
:1006300091E09F938F930E940802412F60E070E049
:1006400080E50E94AE0680EB91E09F938F930E941D
:1006500008028DB79EB70A960FB6F8949EBF0FBEDC
:100660008DBFC1E0D0E0EE24E394C12CD12CF12C5D
:100670000BC08AE791E09F938F930E9408020F902E
:100680000F908FEF9FEF6CC0BE0180E50E94870640
:1006900090E02E2D3C2D112311F02D2D3F2D821792
:1006A0009307D9F0402FBE0180E50E94AE066D2D64
:1006B0007F2D80E50E948706B82E412FBE0180E580
:1006C0000E94AE060B1109C087E691E09F938F93BD
:1006D0000E9408020F900F9005C02196CF3F9FEF18
:1006E000D90791F6DF93CF9389E491E09F938F939D
:1006F0000E9408020F900F900F900F90C0E0D0E082
:100700000F2EFEE3CF2EF1E0DF2EF02D08E311E0F7
:10071000BE0180E50E948706F82ECE018F719927D1
:10072000892B51F4DF93CF93DF92CF920E9408027E
:100730000F900F900F900F901F92FF921F930F93A7
:100740000E94080221960F900F900F900F90C115F4
:1007500081E0D807E9F68AE00E945E0180E090E03F
:10076000DF91CF911F910F91FF90EF90DF90CF908D
:10077000BF900895229A6B9A389A6A9A549A209850
:1007800021985C9860E076E980E090E00E94F107B3
:1007900060E076E980E090E00E9421085C9A0F2EEC
:1007A000F9EACF2EF8E0DF2EF02DD0921701C0929B
:1007B0001601C0E0D1E0DF93CF9309E011E01F9371
:1007C0000F938BE191E09F938F930E9408025C98B6
:1007D0009FEF20E782E0915020408040E1F700C089
:1007E00000000F2EF1EBEF2EF8E0FF2EF02DF0922F
:1007F0001701E0921601DF93CF931F930F938EEFB3
:1008000090E09F938F930E94080260E082E00E9434
:1008100040078FEF90E722E0815090402040E1F7C1
:1008200000C000000E9493028FEF90E722E0815009
:1008300090402040E1F700C000000E94F50260E413
:1008400078E78DE791E00E94390560E082E80E9438
:10085000640660E080E80E94640640E050E068ECD6
:1008600074E482E80E94B70540E050E068EC74E46C
:1008700080E80E94B70520E030E040E050E163E00E
:1008800082E80E94140520E030E040E050E163E09F
:1008900080E80E9414058FEF99E628E1815090408E
:1008A0002040E1F700C000005C9AD0921701C0928E
:1008B000160189ED90E09F938F930E9408025C9847
:1008C000F0921701E092160184EB90E09F938F93D2
:1008D0000E9408028DB79EB740960FB6F8949EBF4F
:1008E0000FBE8DBF19992EC02A98C0E020E030E1DC
:1008F00040E050E06C2F82E80E94140520E030E1D7
:1009000040E050E06C2F80E80E9414059FEF20E744
:1009100082E0915020408040E1F700C0000020E0DC
:1009200030E040E050E16C2F82E80E94140520E0A6
:1009300030E040E050E16C2F80E80E941405CF5F6A
:10094000C031A1F618993BC02A9A00E110E017C007
:1009500020E030E0A8016C2F82E80E94140520E01E
:1009600030E0A8016C2F80E80E941405CF5FC031F1
:1009700079F7005F1F4F011590E11907B9F0C0E04A
:10098000E7CF20E030E0A8016C2F82E80E94140538
:1009900020E030E0A8016C2F80E80E941405CF5FB2
:1009A000C03179F70051110919F409C000EF1FE0B7
:1009B000C0E0E7CF2A980E946B080E94B1080E940D
:1009C0005108892BB9F72FEF80E792E02150804042
:1009D0009040E1F700C000002A9A06C05C9A2A986D
:1009E0000E948A080E94A9080E945E08892BB1F71C
:1009F0005C982FEF80E792E0215080409040E1F733
:100A000000C000002A9A6ECF8130910561F09F935B
:100A10008F938EE592E09F938F930E9408020F9030
:100A20000F900F900F900895CF93DF9300D000D0D8
:100A30001F92CDB7DEB770E0660F771F660F771F86
:100A40006A5F7F4F69834A835B832C833D8320E009
:100A500045E0BE016F5F7F4F86950E9461070E944F
:100A600004050F900F900F900F900F90DF91CF9192
:100A70000895609318017093190180931A0190935F
:100A80001B0108951F93CF93DF9300D000D01F92D6
:100A9000CDB7DEB76983182F169521E041E0BE017E
:100AA0006F5F7F4F812F0E9461070E94040541E024
:100AB000BE016F5F7F4F812F0E94B0070E94040527
:100AC00089810F900F900F900F900F90DF91CF9131
:100AD0001F910895CF93DF9300D0CDB7DEB7698320
:100AE0004A8320E042E0BE016F5F7F4F86950E94FF
:100AF00061070E9404050F900F90DF91CF91089538
:100B000040E860E00E946A058FE19EE40197F1F7FA
:100B100000C0000008951F93CF93DF93D82F162FA6
:100B200060E00E944205C82FCF764C2F406160E004
:100B30008D2F0E946A05C0654C2F60E08D2F0E94AA
:100B40006A05412F6EEF8D2F0E946A058FE097E2B4
:100B50000197F1F700C000004C2F4F74406A60E02D
:100B60008D2F0E946A05DF91CF911F9108958F927A
:100B70009F92AF92BF92CF92DF92EF92FF92CF936C
:100B8000DF93C82F6A017B0120E030E040E85FE39B
:100B9000C701B6010E948E098823A4F020E030EC42
:100BA0004AE555E4C701B6010E94E60A181694F416
:100BB0000F2EC12CF0ECDF2EFAE5EF2EF5E4FF2E20
:100BC000F02D08C00F2EC12CD12CF0E8EF2EFFE342
:100BD000FF2EF02D609118017091190180911A017A
:100BE00090911B010E94340A4B015C0120E030E02F
:100BF00040E855E4C701B6010E94EB0A9B01AC0135
:100C0000C501B4010E94930920E030E040E05FE3B9
:100C10000E94220920E030E040E85FE30E942109C1
:100C20006B017C0120E030E040E450E40E948E093A
:100C300088239CF020E030E04FE753E4C701B60181
:100C40000E94E60A18167CF40F2EC12CD12CFFE767
:100C5000EF2EF3E4FF2EF02D06C0C12CD12C6894AA
:100C6000EE24E6F8FE2C60E08C2F0E944205D82F7F
:100C7000482F4F76406160E08C2F0E946A05C701C3
:100C8000B6010E94050A462F6EEF8C2F0E946A055E
:100C90004D2F60E08C2F0E946A058FE097E201974C
:100CA000F1F700C000004D2F406A60E08C2F0E94D9
:100CB0006A05DF91CF91FF90EF90DF90CF90BF90CA
:100CC000AF909F908F900895CF93DF93C82FD62F2A
:100CD0000E948005DD2329F06D2F8C2F0E948B054B
:100CE00007C040E050E06AE774E48C2F0E94B7052B
:100CF00080E498E7ADE7B1E0809318019093190183
:100D0000A0931A01B0931B01DF91CF9108951F9317
:100D1000CF93DF9300D000D01F92CDB7DEB7182F4E
:100D200079836A8321E042E0BE016F5F7F4F0E94BA
:100D300061070E94040541E0BE016F5F7F4F812F74
:100D40000E94B0070E94040589810F900F900F90B8
:100D50000F900F90DF91CF911F910895CF93DF9364
:100D600000D01F92CDB7DEB779836A834B8320E032
:100D700043E0BE016F5F7F4F0E9461070E94040540
:100D80000F900F900F90DF91CF91089584EA809398
:100D9000BC00ECEBF0E080818823ECF78091B90097
:100DA000887F883051F08091B900887F803141F090
:100DB0008091B900887F90E0089581E090E00895E7
:100DC00081E090E008958093BB0084E88093BC00AC
:100DD000ECEBF0E080818823ECF78091B900887F0C
:100DE000883151F08091B900887F803441F0809142
:100DF000B900887F90E0089581E090E0089581E057
:100E000090E008958093BB0084E88093BC00ECEBF5
:100E1000F0E080818823ECF78091B900887F8832E8
:100E200029F08091B900887F90E0089581E090E0FA
:100E30000895882389F084EC8093BC00ECEBF0E00B
:100E400080818823ECF78091B900887F8035A9F0F4
:100E50008091B900887F089584E88093BC00ECEB12
:100E6000F0E080818823ECF78091B900887F883595
:100E700021F08091B900887F08958091BB0008958A
:100E800097B1906397B9662321F098B1906398B9B0
:100E900003C098B19F7C98B997B19F7C97B9813076
:100EA00041F018F0823049F0089588E48093B8004A
:100EB000089588E18093B80008958CE08093B8008D
:100EC0000895EF92FF920F931F93CF93DF93C82F54
:100ED0008B01F42EE22E0E94C60681309105E9F4C2
:100EE0008C2F880F0E94E30681309105C1F4FF200A
:100EF00061F0E8010F0D111D89910E9402078130F8
:100F0000910579F4C017D107B9F7E1100CC084E955
:100F10008093BC0021E090E008C0282F06C0282F55
:100F200004C0282F02C021E090E0822FDF91CF91F2
:100F30001F910F91FF90EF900895CF93C82F0E94BB
:100F4000C6068130910551F48C2F880F0E94E3066C
:100F50008130910519F424E92093BC00CF910895C4
:100F6000CF92DF92EF92FF921F93CF93DF93C82F20
:100F70007B01142F0E94C6069C018130910541F52A
:100F80008C2F880F81600E94E3068130910509F55E
:100F9000812F90E00197181619065CF4E7016C01A7
:100FA000CE0CDF1C81E00E9419078993CC16DD0668
:100FB000C9F7C12FD0E02197CE0DDF1D80E00E9440
:100FC0001907888384E98093BC0081E090E001C028
:100FD000932FDF91CF911F91FF90EF90DF90CF90F3
:100FE0000895CF93DF939B01AC01F894C1ECD0E05E
:100FF000188260E072E18AE790E00E94580BDA0103
:10100000C9010896A11DB11D689413F8B695A7955E
:10101000979587951694D1F79C012150310930930B
:10102000C5002093C40088E98883ECE1F1E01382D5
:10103000128211821082158214827894DF91CF91EE
:101040000895CF93DF939B01AC01F894C9ECD0E0F5
:10105000188260E072E18AE790E00E94580BDA01A2
:10106000C9010896A11DB11D689413F8B695A795FE
:10107000979587951694D1F79C01215031093093AB
:10108000CD002093CC0088E98883E2E2F3E013826C
:10109000128211821082158214827894DF91CF918E
:1010A0000895F8942091200130912101789481E0F5
:1010B00090E0232B11F480E090E00895F8942091C3
:1010C000260330912703789481E090E0232B11F4DC
:1010D00080E090E00895ECE1F1E0F894848195815E
:1010E0007894892BD1F3ECE1F1E022813381D901AD
:1010F000A45EBE4F16968C912F5F3F4F31703383A5
:101100002283F89424813581215031093583248349
:1011100078940895E2E2F3E0F894848195817894DC
:10112000892BD1F3E2E2F3E022813381D901AE5D74
:10113000BC4F16968C912F5F3F4F317033832283C3
:10114000F8942481358121503109358324837894A2
:101150000895E0ECF0E0908195FFFDCF8093C6000C
:101160000895E8ECF0E0908195FFFDCF8093CE00EC
:1011700008951F920F920FB60F9211242F933F9351
:101180008F939F93AF93BF93EF93FF932091C600EC
:101190008091200190912101811532E0930780F424
:1011A0000196ECE1F1E09583848380819181DC01FB
:1011B000A45EBE4F16962C93019691709183808306
:1011C000FF91EF91BF91AF919F918F913F912F919F
:1011D0000F900FBE0F901F9018951F920F920FB691
:1011E0000F9211242F933F938F939F93AF93BF93AD
:1011F000EF93FF932091CE008091260390912703D7
:10120000811532E0930780F40196E2E2F3E09583E2
:10121000848380819181DC01AE5DBC4F16962C9356
:101220000196917091838083FF91EF91BF91AF916F
:101230009F918F913F912F910F900FBE0F901F9014
:1012400018955058BB27AA270E9439090C94AC0A5C
:101250000E949E0A38F00E94A50A20F039F49F3FB0
:1012600019F426F40C949B0A0EF4E095E7FB0C9419
:10127000950AE92F0E94BD0A58F3BA17620773074F
:101280008407950720F079F4A6F50C94DF0A0EF494
:10129000E0950B2EBA2FA02D0B01B90190010C0186
:1012A000CA01A0011124FF27591B99F0593F50F49E
:1012B000503E68F11A16F040A22F232F342F4427F6
:1012C000585FF3CF469537952795A795F0405395EE
:1012D000C9F77EF41F16BA0B620B730B840BBAF0BE
:1012E0009150A1F0FF0FBB1F661F771F881FC2F729
:1012F0000EC0BA0F621F731F841F48F4879577953D
:101300006795B795F7959E3F08F0B0CF9395880FF6
:1013100008F09927EE0F9795879508950E94710A16
:1013200008F481E008950E94A7090C94AC0A0E9479
:10133000A50A58F00E949E0A40F029F45F3F29F068
:101340000C94950A51110C94E00A0C949B0A0E948B
:10135000BD0A68F39923B1F3552391F3951B550BFF
:10136000BB27AA2762177307840738F09F5F5F4F78
:10137000220F331F441FAA1FA9F335D00E2E3AF0B7
:10138000E0E832D091505040E695001CCAF72BD0CF
:10139000FE2F29D0660F771F881FBB1F2617370720
:1013A0004807AB07B0E809F0BB0B802DBF01FF2752
:1013B00093585F4F3AF09E3F510578F00C94950A90
:1013C0000C94E00A5F3FE4F3983ED4F3869577955A
:1013D0006795B795F7959F5FC9F7880F911D96950B
:1013E000879597F90895E1E0660F771F881FBB1F67
:1013F000621773078407BA0720F0621B730B840B14
:10140000BA0BEE1F88F7E09508950E94C50A88F090
:101410009F5798F0B92F9927B751B0F0E1F0660FB8
:10142000771F881F991F1AF0BA95C9F714C0B130F9
:1014300091F00E94DF0AB1E008950C94DF0A672F53
:10144000782F8827B85F39F0B93FCCF38695779528
:101450006795B395D9F73EF4909580957095619511
:101460007F4F8F4F9F4F0895E89409C097FB3EF43C
:1014700090958095709561957F4F8F4F9F4F9923E1
:10148000A9F0F92F96E9BB279395F695879577955F
:101490006795B795F111F8CFFAF4BB0F11F460FF1F
:1014A0001BC06F5F7F4F8F4F9F4F16C0882311F077
:1014B00096E911C0772321F09EE8872F762F05C08B
:1014C000662371F096E8862F70E060E02AF09A9526
:1014D000660F771F881FDAF7880F9695879597F91B
:1014E0000895990F0008550FAA0BE0E8FEEF1616B5
:1014F0001706E807F907C0F012161306E407F50708
:1015000098F0621B730B840B950B39F40A2661F07B
:10151000232B242B252B21F408950A2609F4A1401E
:10152000A6958FEF811D811D089597F99F6780E82B
:1015300070E060E008959FEF80EC089500240A9425
:101540001616170618060906089500240A9412169E
:101550001306140605060895092E0394000C11F4D1
:10156000882352F0BB0F40F4BF2B11F460FF04C07E
:101570006F5F7F4F8F4F9F4F089557FD9058440FD7
:10158000551F59F05F3F71F04795880F97FB991FE2
:1015900061F09F3F79F0879508951216130614069F
:1015A000551FF2CF4695F1DF08C01616170618062C
:1015B000991FF1CF86957105610508940895E89407
:1015C000BB2766277727CB0197F908950E94710AF8
:1015D00008F48FEF08950E94FE0A0C94AC0A0E9452
:1015E0009E0A38F00E94A50A20F0952311F00C9471
:1015F000950A0C949B0A11240C94E00A0E94BD0ADF
:1016000070F3959FC1F3950F50E0551F629FF00155
:10161000729FBB27F00DB11D639FAA27F00DB11D6E
:10162000AA1F649F6627B00DA11D661F829F2227F7
:10163000B00DA11D621F739FB00DA11D621F839F7E
:10164000A00D611D221F749F3327A00D611D231F54
:10165000849F600D211D822F762F6A2F11249F57A2
:1016600050409AF0F1F088234AF0EE0FFF1FBB1FA5
:10167000661F771F881F91505040A9F79E3F510564
:1016800080F00C94950A0C94E00A5F3FE4F3983ED6
:10169000D4F3869577956795B795F795E7959F5F0E
:1016A000C1F7FE2B880F911D9695879597F90895A0
:1016B000A1E21A2EAA1BBB1BFD010DC0AA1FBB1F56
:1016C000EE1FFF1FA217B307E407F50720F0A21BC8
:1016D000B30BE40BF50B661F771F881F991F1A9435
:1016E00069F760957095809590959B01AC01BD015F
:0816F000CF010895F894FFCF2B
:1016F80030333A34333A3032004A756C2033302074
:0617080032303231000016
:107E000001C0B7C0112484B790E89093610010922C
:107E10006100882361F0982F9A70923041F081FFC1
:107E200002C097EF94BF282E80E0C6D0E9C085E05D
:107E30008093810082E08093C80088E18093C9002C
:107E400089E18093CC0086E08093CA008EE0B4D0B4
:107E5000259A84E028E13EEF91E03093850020935D
:107E6000840096BBB09BFECF1D9AA8954091C80098
:107E700047FD02C0815089F793D0813479F490D0C6
:107E8000182FA0D0123811F480E004C088E0113817
:107E900009F083E07ED080E17CD0EECF823419F40B
:107EA00084E198D0F8CF853411F485E0FACF853598
:107EB00041F476D0C82F74D0D82FCC0FDD1F82D0DC
:107EC000EACF863519F484E085D0DECF843691F58B
:107ED00067D066D0F82E64D0D82E00E011E05801AB
:107EE0008FEFA81AB80A5CD0F80180838501FA10D8
:107EF000F6CF68D0F5E4DF1201C0FFCF50E040E0DC
:107F000063E0CE0136D08E01E0E0F1E06F0182E067
:107F1000C80ED11C4081518161E0C8012AD00E5F9A
:107F20001F4FF601FC10F2CF50E040E065E0CE01BB
:107F300020D0B1CF843771F433D032D0F82E30D086
:107F400041D08E01F80185918F0123D0FA94F11070
:107F5000F9CFA1CF853739F435D08EE11AD085E934
:107F600018D086E197CF813509F0A9CF88E024D0D9
:107F7000A6CFFC010A0167BFE895112407B600FCF3
:107F8000FDCF667029F0452B19F481E187BFE89594
:107F900008959091C80095FFFCCF8093CE0008957E
:107FA0008091C80087FFFCCF8091C80084FD01C08C
:107FB000A8958091CE000895E0E6F0E098E19083E6
:107FC00080830895EDDF803219F088E0F5DFFFCF80
:107FD00084E1DFCFCF93C82FE3DFC150E9F7CF9122
:027FE000F1CFDF
:027FFE00000879
:0400000300007E007B
:00000001FF
