:100000000C94D4010C94F1010C94F1010C94F101C5
:100010000C94F1010C94F1010C94F1010C94F10198
:100020000C94F1010C94F1010C94F1010C94F10188
:100030000C94F1010C94F1010C94F1010C94F10178
:100040000C94F1010C94F1010C94330A0C94F1011D
:100050000C94F1010C94F1010C94F1010C94F10158
:100060000C94F1010C94F1010C94F1010C94F10148
:100070000C94660A0C94F1010C94F1010C94F101BA
:100080000C94F1010C94F1010C94F1010C94F10128
:100090000C94F1010C94F1010C94F1010C94F10118
:1000A0000C94F1010C94F1010C94F1010C94F10108
:1000B0000C94F1015B382C3235385D0A000A526528
:1000C00063656976656420646174612066726F6D32
:1000D0002052533438353D3D3E5553415254313A08
:1000E0000A000A526563656976656420646174611B
:1000F0002066726F6D205553415254313D3D3E5242
:10010000533438353A0A0A000A43483136205465D8
:10011000737465722056312E31206F6E20556172D6
:100120007431210925732025730A000A43483136AA
:10013000205465737465722056312E31206F6E2005
:100140005253343835210925732025730A0A0025B6
:1001500030325820000A203078253034583A2000B8
:1001600054686973204652414D2063616E20737458
:100170006F72652025752062797465730A00546872
:100180006973204652414D2063616E2073746F7213
:10019000652025752062797465730A0A00466F75BB
:1001A0006E64206D617820616464726573732109E7
:1001B00000466F756E64206D6178206164647265BD
:1001C000737321090A00493243204652414D206E83
:1001D0006F74206964656E746966696564202E2E8B
:1001E0002E20636865636B20796F757220636F6E74
:1001F0006E656374696F6E733F0D0A004932432068
:100200004652414D206E6F74206964656E74696654
:10021000696564202E2E2E20636865636B20796FDC
:10022000757220636F6E6E656374696F6E733F0DD8
:100230000A0A0054657374696E67204652414D2066
:1002400073697A65210A0054657374696E67204684
:1002500052414D2073697A65210A0A005265737410
:1002600061727465642025752074696D657320253D
:1002700075200A00466F756E64204932432046524D
:10028000414D0A00466F756E642049324320465244
:10029000414D0A0A00646F6E650A00646F6E650A5C
:1002A0000A004E6F204932432064657669636573A6
:1002B00020666F756E640A004E6F204932432064D9
:1002C00065766963657320666F756E640A0A00550A
:1002D0006E6B6E6F776E206572726F722025642070
:1002E0006174206164647265737320307825580AE4
:1002F00000556E6B6E6F776E206572726F7220257F
:1003000064206174206164647265737320307825A1
:10031000580A0A004932432064657669636520669D
:100320006F756E64206174206164647265737320FC
:100330003078255820210A004932432064657669C7
:10034000636520666F756E642061742061646472F9
:10035000657373203078255820210A0A00536361A1
:100360006E6E696E6720646576696365732E2E2EE6
:100370000A005363616E6E696E6720646576696317
:1003800065732E2E2E0A0A00417070206572726FFE
:100390007221206572726F725F636F6465203D2009
:1003A0003078253032580A0011241FBECFEFD8E034
:1003B000DEBFCDBF11E0A0E0B1E0E8EEF9E102C0A0
:1003C00005900D92A631B107D9F725E0A6E1B1E07D
:1003D00001C01D92A832B207E1F70E9430050C94CB
:1003E000F20C0C9400008A3019F48DE001D08AE000
:1003F000FF93EF93E0911601F0911701309709F008
:100400000995EF91FF910895FC018591803011F0DD
:10041000EADFFBCF0895FF27E0E230E247FF0CC0A0
:10042000419597FF09C0EDE2609570958095909594
:10043000611D711D811D911D27FF02C0219530E3B3
:1004400050E2AA27660F771F881F991FAA1FA417BB
:1004500010F0A41B63955A95A9F7AA3008F0A95F7C
:10046000A05DAF93F395611571058105910541F785
:10047000ED3211F4EF93F395F21718F43F93F395DF
:10048000FBCF8F91B0DFFA95E1F70895E991F991EB
:100490008591803021F0853219F0A5DFF9CF0895DC
:1004A00020E0E89455915532C1F3503311F468942B
:1004B00055915A3348F4505390F3220F022E220FD5
:1004C000220F200D250FF4CF0EF4219589919991DB
:1004D000533619F3533729F1533559F1BC018827A5
:1004E0009927E8945C3621F4899199916894559103
:1004F000543639F446EF7EF077FF0DC08FEF9FEF53
:100500000AC055374AE039F0583540E121F05236FB
:1005100042E009F00895FF93EF937DDFEF91FF91A3
:10052000B7CFFF93EF93FC0181918030B9F35BDF8C
:10053000FBCFFF93EF9368DFF1CFDF93CF93CDB77E
:10054000DEB72596A3DFCF91DF910895F701819360
:100550007F010895DF93CF93CDB7DEB72596E09165
:100560001601F0911701EF93FF93E6EAF2E0E093B2
:100570001601F0931701FF92EF92E990F99086DF50
:10058000F7011082EF90FF90FF91EF91E093160139
:10059000F0931701CF91DF9108950B01DC01ED91EC
:1005A000FD912227332744275527E8949AE001C07C
:1005B000319660816032E1F3A8F16D3211F46894F4
:1005C000F7CF6A3378F5603368F171F498E03196CB
:1005D0006081613248F1623611F492E003C06837FD
:1005E00019F490E1319660816132F0F0613608F0E3
:1005F00060526053B8F06A3018F067506A3090F07B
:10060000691780F481E2771B08F4790F7695579586
:100610004795379527958A95B9F7260F381F481FB4
:10062000581FE0CF80E001C081E04EF4662720959E
:10063000309540955095261F361F461F561FFE9336
:10064000EE93D0012D933D934D935D931124089526
:100650003F924F925F926F927F928F929F92AF9252
:10066000BF92CF92DF92EF92FF920F931F93CF939F
:10067000DF935C9A85E29AE09093170180931601CC
:1006800082E793E09F938F930E949D025C988CE297
:100690009AE090931701809316018DE593E09F9364
:1006A0008F930E949D020F900F900F900F90C1E0CA
:1006B000D0E0312C85E2E82E8AE0F82E91EF492E29
:1006C00092E0592E2CE2C22E2AE0D22E3FEC632E6D
:1006D00032E0732E48E3842E43E0942E54E1A52E9D
:1006E00053E0B52E8C2F0E941009813001F55C9AE1
:1006F000F0921701E0921601DF93CF939F928F92B1
:100700000E949D025C98D0921701C0921601DF935F
:10071000CF93BF92AF920E949D0233948DB79EB744
:1007200008960FB6F8949EBF0FBE8DBF26C08430CA
:1007300021F55C9AF0921701E09216018C011127C5
:10074000DF93CF931F930F935F924F920E949D026E
:100750005C98D0921701C0921601DF93CF931F933C
:100760000F937F926F920E949D028DB79EB70C9659
:100770000FB6F8949EBF0FBE8DBF8FE19EE4019728
:10078000F1F700C000002196CF37D10509F0AACFBC
:100790005C9A85E29AE090931701809316013110DC
:1007A00010C088EB92E09F938F930E949D025C980B
:1007B0008CE29AE0909317018093160182EA92E00E
:1007C0000FC08BE992E09F938F930E949D025C98EB
:1007D0008CE29AE0909317018093160185E992E0EC
:1007E0009F938F930E949D020F900F900F900F90F8
:1007F000DF91CF911F910F91FF90EF90DF90CF90FD
:10080000BF90AF909F908F907F906F905F904F9030
:100810003F900895DF92EF92FF920F931F93CF9333
:10082000DF93729880E50E9410095C9A019709F0A5
:1008300055C095E2E92E9AE0F92EF0921701E09268
:10084000160184E892E09F938F930E949D025C982A
:10085000CCE2DAE0D0931701C093160184E792E06E
:100860009F938F930E949D0260E070E080E50E945C
:100870000F0811E0180F012F00951F920F931F9280
:100880001F938CE592E09F938F930E949D02412FCE
:1008900060E070E080E50E9436085C9AF0921701F3
:1008A000E092160187E492E09F938F930E949D024D
:1008B0005C98D0931701C093160183E392E09F9355
:1008C0008F930E949D028DB79EB70E960FB6F89437
:1008D0009EBF0FBE8DBFC1E0D0E028C085E29AE088
:1008E00090931701809316018CEF91E09F938F9363
:1008F0000E949D025C988CE29AE09093170180938D
:10090000160186EC91E09F938F930E949D020F90B9
:100910000F900F900F908FEF9FEF9AC08217930761
:1009200089F42196CF3F9FEFD907E1F1BE0180E521
:100930000E940F0890E021E030E0112379F320E0DD
:1009400030E0ECCF402FBE0180E50E94360860E029
:1009500070E080E50E940F08F82E412FBE0180E56F
:100960000E9436080F11DDCF5C9A85E29AE09093E1
:1009700017018093160181EB91E09F938F930E9462
:100980009D025C988CE29AE0909317018093160187
:100990008DE991E09F938F930E949D020F900F909D
:1009A0000F900F905C9A85E29AE0909317018093E4
:1009B0001601DF93CF938EE791E09F938F930E9470
:1009C0009D025C988CE29AE0909317018093160147
:1009D000DF93CF9380E691E09F938F930E949D02D7
:1009E0008DB79EB708960FB6F8949EBF0FBE8DBF09
:1009F000C0E0D0E085E5E82E81E0F82E0FE411E0BC
:100A0000BE0180E50E940F08D82ECE018F71992774
:100A1000892B51F4DF93CF93FF92EF920E949D02B6
:100A20000F900F900F900F901F92DF921F930F93D4
:100A30000E949D0221960F900F900F900F90C1156C
:100A400091E0D907E9F68AE00E94F30180E090E0A6
:100A5000DF91CF911F910F91FF90EF90DF9008955C
:100A6000229A6B9A389A6A9A549A209821985C989C
:100A700060E076E980E090E00E94650960E076E958
:100A800080E090E00E9494095C9A85E2C82E8AE09A
:100A9000D82ED0921701C0921601C0E0D1E0DF93AA
:100AA000CF9309E011E01F930F938BE291E09F93A6
:100AB0008F930E949D025C989FEF20E782E0915007
:100AC00020408040E1F700C000009CE2E92E9AE05F
:100AD000F92EF0921701E0921601DF93CF931F9346
:100AE0000F9388E091E09F938F930E949D0260E0B6
:100AF00082E00E94BA088FEF90E722E08150904098
:100B00002040E1F700C000000E9428038FEF90E72B
:100B100022E0815090402040E1F700C000000E9498
:100B20000A0460E478E78DE791E00E94CA0660E07D
:100B300082E80E94EC0760E080E80E94EC0740E059
:100B400050E068EC74E482E80E94470740E050E01F
:100B500068EC74E480E80E94470720E030E040E061
:100B600050E163E082E80E94A60620E030E040E029
:100B700050E163E080E80E94A6068FEF99E628E145
:100B8000815090402040E1F700C000005C9AD09274
:100B90001701C092160182EE90E09F938F930E94FE
:100BA0009D025C98F0921701E09216018DEB90E0A7
:100BB0009F938F930E949D028DB79EB740960FB66C
:100BC000F8949EBF0FBE8DBF24EBE22E20E0F22EE4
:100BD000199B06C018996EC02A9A00E110E03BC02C
:100BE0002A985C9AD0921701C0921601FF92EF9258
:100BF0000E949D025C980F900F90C0E020E030E1D1
:100C000040E050E06C2F82E80E94A60620E030E130
:100C100040E050E06C2F80E80E94A6069FEF20E79E
:100C200082E0915020408040E1F700C0000020E0C9
:100C300030E040E050E16C2F82E80E94A60620E000
:100C400030E040E050E16C2F80E80E94A606CF5FC4
:100C5000C031A1F6BFCFC0E020E030E0A8016C2F8A
:100C600082E80E94A60620E030E0A8016C2F80E810
:100C70000E94A606CF5FC03179F7005F1F4F0115B4
:100C800090E1190741F700EF1FE0C0E020E030E0FD
:100C9000A8016C2F82E80E94A60620E030E0A8019F
:100CA0006C2F80E80E94A606CF5FC03179F7005113
:100CB000110959F70E94C309181619068CF42A98CD
:100CC0000E94C309892B29F00E94DD090E942C0A89
:100CD000F7CF8FE19EE40197F1F700C000002A9A58
:100CE0000E94D009181619060CF072CF2A985C9A47
:100CF0000E94D009892B59F095E09A95F1F70000F0
:100D0000F8940E94010A0E94250A7894F1CF8AE0A3
:100D10000E94250A8AE00E94250A5C988FE19EE4E1
:100D20000197F1F700C000002A9A52CF8130910557
:100D300061F09F938F9388E893E09F938F930E9435
:100D40009D020F900F900F900F900895CF93DF9317
:100D500000D000D01F92CDB7DEB794E0699FB001FC
:100D600011246A5F7F4F69834A835B832C833D83B1
:100D700020E045E0BE016F5F7F4F86950E94D50859
:100D80000E9496060F900F900F900F900F90DF919A
:100D9000CF910895609318017093190180931A01FF
:100DA00090931B0108951F93CF93DF9300D000D041
:100DB0001F92CDB7DEB76983182F169521E041E069
:100DC000BE016F5F7F4F812F0E94D5080E9496065B
:100DD00041E0BE016F5F7F4F812F0E9428090E9472
:100DE000960689810F900F900F900F900F90DF91D2
:100DF000CF911F910895CF93DF9300D0CDB7DEB789
:100E000069834A8320E042E0BE016F5F7F4F869591
:100E10000E94D5080E9496060F900F90DF91CF9107
:100E2000089540E860E00E94FB068FE19EE4019790
:100E3000F1F700C0000008951F93CF93DF93D82FE0
:100E4000162F60E00E94D306C82FCF764C2F40614A
:100E500060E08D2F0E94FB06C0654C2F60E08D2F57
:100E60000E94FB06412F6EEF8D2F0E94FB068FE044
:100E700097E20197F1F700C000004C2F4F74406AD1
:100E800060E08D2FDF91CF911F910C94FB068F9224
:100E90009F92AF92BF92CF92DF92EF92FF92CF9349
:100EA000DF93C82F6A017B0120E030E040E85FE378
:100EB000C701B6010E94060B87FD12C020E030EC8E
:100EC0004AE555E4C701B6010E945E0C181674F499
:100ED000C12C30ECD32E3AE5E32E35E4F32E06C0D8
:100EE000C12CD12C20E8E22E2FE3F22E60911801C4
:100EF0007091190180911A0190911B010E94AC0B15
:100F00004B015C0120E030E040E855E4C701B60148
:100F10000E94630C9B01AC01C501B4010E940B0B44
:100F200020E030E040E05FE30E949A0A20E030E0F9
:100F300040E85FE30E94990A6B017C0120E030E009
:100F400040E450E40E94060B87FD11C020E030E031
:100F50004FE753E4C701B6010E945E0C181664F413
:100F6000C12CD12C9FE7E92E93E4F92E05C0C12CAA
:100F7000D12C80E4E82EFE2C60E08C2F0E94D3065A
:100F8000D82F482F4F76406160E08C2F0E94FB06DF
:100F9000C701B6010E947D0B462F6EEF8C2F0E9479
:100FA000FB064D2F60E08C2F0E94FB068FE097E23E
:100FB0000197F1F700C000004D2F406A60E08C2FD0
:100FC000DF91CF91FF90EF90DF90CF90BF90AF90E7
:100FD0009F908F900C94FB06CF93DF93C82FD62F52
:100FE0000E941107DD2329F06D2F8C2F0E941C0712
:100FF00007C040E050E06AE774E48C2F0E94470786
:1010000080E498E7ADE7B1E080931801909319016F
:10101000A0931A01B0931B01DF91CF9108951F9304
:10102000CF93DF9300D000D01F92CDB7DEB7182F3B
:1010300079836A8321E042E0BE016F5F7F4F0E94A7
:10104000D5080E94960641E0BE016F5F7F4F812F59
:101050000E9428090E94960689810F900F900F9098
:101060000F900F90DF91CF911F910895CF93DF9351
:1010700000D01F92CDB7DEB779836A834B8320E01F
:1010800043E0BE016F5F7F4F0E94D5080E94960625
:101090000F900F900F90DF91CF91089584EA809385
:1010A000BC008091BC0087FFFCCF8091B900887F95
:1010B000883051F08091B900887F803129F080918B
:1010C000B900887F90E0089581E090E008958093D2
:1010D000BB0084E88093BC008091BC0087FFFCCFFC
:1010E0008091B900887F883151F08091B900887F64
:1010F000803429F08091B900887F90E0089581E0E4
:1011000090E008958093BB0084E88093BC008091B8
:10111000BC0087FFFCCF8091B900887F883229F01E
:101120008091B900887F90E0089581E090E0089573
:10113000882369F084EC8093BC008091BC0087FF19
:10114000FCCF8091B900887F803569F410C084E8B5
:101150008093BC008091BC0087FFFCCF8091B900D8
:10116000887F883521F08091B900887F089580912B
:10117000BB00089597B1906397B998B1662311F0B9
:10118000906301C09F7C98B997B19F7C97B98130DB
:1011900031F018F0823029F0089588E403C088E126
:1011A00001C08CE08093B8000895DF92EF92FF9227
:1011B0000F931F93CF93DF93D82F8B01C42FD22E81
:1011C0000E944E0881309105F1F48D2F880F0E9406
:1011D000670881309105B9F47801D0E0C701801B20
:1011E000910B8C179D074CF4F70181917F010E94B0
:1011F00082088130910591F306C0D11006C084E9C0
:101200008093BC0002C0282F02C021E090E0822F12
:10121000DF91CF911F910F91FF90EF90DF90089594
:10122000CF93C82F0E944E088130910569F48C2F0E
:10123000880F0E9467088130910531F484E980931A
:10124000BC0021E090E001C0282F822FCF910895AB
:10125000EF92FF920F931F93CF93DF93C82F8B01D1
:10126000D42F0E944E088130910531F58C2F880FC4
:1012700081600E94670881309105F1F478014D2F5B
:1012800050E0EA012197C701801B910B8C179D0745
:101290003CF481E00E949808F70181937F01F3CF2D
:1012A000C00FD11F80E00E949808888384E9809352
:1012B000BC0021E090E001C0282F822FDF91CF9168
:1012C0001F910F91FF90EF900895CF93DF939B01B3
:1012D000AC01F894C1ECD0E0188260E072E18AE7DA
:1012E00090E00E94D00CDA01C9010896A11DB11D41
:1012F00024E0B695A795979587952A95D1F79C01F7
:10130000215031093093C5002093C40088E98883B7
:10131000ECE1F1E0138212821182108215821482B4
:101320007894DF91CF910895CF93DF939B01AC0127
:10133000F894C9ECD0E0188260E072E18AE790E0AE
:101340000E94D00CDA01C9010896A11DB11D24E04C
:10135000B695A795979587952A95D1F79C01215029
:1013600031093093CD002093CC0088E98883E2E2F4
:10137000F3E0138212821182108215821482789413
:10138000DF91CF910895F8942091200130912101AF
:10139000789481E090E0232B11F480E090E00895B0
:1013A000F8942091260330912703789481E090E00F
:1013B000232B11F480E090E00895F89480912001AF
:1013C000909121017894892BC1F320911E013091D5
:1013D0001F01F901E45EFE4F86812F5F3F4F3170A0
:1013E00030931F0120931E01F89420912001309129
:1013F000210121503109309321012093200178945B
:101400000895F89480912603909127037894892B6E
:10141000C1F32091240330912503F901EE5DFC4FC7
:1014200086812F5F3F4F3170309325032093240333
:10143000F8942091260330912703215031093093ED
:10144000270320932603789408959091C00095FF78
:10145000FCCF8093C60008959091C80095FFFCCF03
:101460008093CE0008951F920F920FB60F92112411
:101470002F933F938F939F93EF93FF932091C600F9
:101480008091200190912101811532E0930798F419
:101490000196909321018093200180911C019091ED
:1014A0001D01FC01E45EFE4F26830196917090932E
:1014B0001D0180931C01FF91EF919F918F913F91AE
:1014C0002F910F900FBE0F901F9018951F920F92A3
:1014D0000FB60F9211242F933F938F939F93EF9307
:1014E000FF932091CE0080912603909127038115D0
:1014F00032E0930798F40196909327038093260394
:101500008091220390912303FC01EE5DFC4F268322
:10151000019691709093230380932203FF91EF91A2
:101520009F918F913F912F910F900FBE0F901F9021
:1015300018955058BB27AA270E94B10A0C94240C76
:101540000E94160C38F00E941D0C20F039F49F3FC9
:1015500019F426F40C94130C0EF4E095E7FB0C94AC
:101560000D0CE92F0E94350C58F3BA176207730768
:101570008407950720F079F4A6F50C94570C0EF427
:10158000E0950B2EBA2FA02D0B01B90190010C0193
:10159000CA01A0011124FF27591B99F0593F50F4AB
:1015A000503E68F11A16F040A22F232F342F442703
:1015B000585FF3CF469537952795A795F0405395FB
:1015C000C9F77EF41F16BA0B620B730B840BBAF0CB
:1015D0009150A1F0FF0FBB1F661F771F881FC2F736
:1015E0000EC0BA0F621F731F841F48F4879577954A
:1015F0006795B795F7959E3F08F0B0CF9395880F04
:1016000008F09927EE0F9795879508950E94E90BAA
:1016100008F481E008950E941F0B0C94240C0E9492
:101620001D0C58F00E94160C40F029F45F3F29F081
:101630000C940D0C51110C94580C0C94130C0E942A
:10164000350C68F39923B1F3552391F3951B550B92
:10165000BB27AA2762177307840738F09F5F5F4F85
:10166000220F331F441FAA1FA9F335D00E2E3AF0C4
:10167000E0E832D091505040E695001CCAF72BD0DC
:10168000FE2F29D0660F771F881FBB1F261737072D
:101690004807AB07B0E809F0BB0B802DBF01FF275F
:1016A00093585F4F3AF09E3F510578F00C940D0C23
:1016B0000C94580C5F3FE4F3983ED4F386957795ED
:1016C0006795B795F7959F5FC9F7880F911D969518
:1016D000879597F90895E1E0660F771F881FBB1F74
:1016E000621773078407BA0720F0621B730B840B21
:1016F000BA0BEE1F88F7E09508950E943D0C88F024
:101700009F5798F0B92F9927B751B0F0E1F0660FC5
:10171000771F881F991F1AF0BA95C9F714C0B13006
:1017200091F00E94570CB1E008950C94570C672F6C
:10173000782F8827B85F39F0B93FCCF38695779535
:101740006795B395D9F73EF490958095709561951E
:101750007F4F8F4F9F4F0895E89409C097FB3EF449
:1017600090958095709561957F4F8F4F9F4F9923EE
:10177000A9F0F92F96E9BB279395F695879577956C
:101780006795B795F111F8CFFAF4BB0F11F460FF2C
:101790001BC06F5F7F4F8F4F9F4F16C0882311F084
:1017A00096E911C0772321F09EE8872F762F05C098
:1017B000662371F096E8862F70E060E02AF09A9533
:1017C000660F771F881FDAF7880F9695879597F928
:1017D0000895990F0008550FAA0BE0E8FEEF1616C2
:1017E0001706E807F907C0F012161306E407F50715
:1017F00098F0621B730B840B950B39F40A2661F089
:10180000232B242B252B21F408950A2609F4A1402B
:10181000A6958FEF811D811D089597F99F6780E838
:1018200070E060E008959FEF80EC089500240A9432
:101830001616170618060906089500240A941216AB
:101840001306140605060895092E0394000C11F4DE
:10185000882352F0BB0F40F4BF2B11F460FF04C08B
:101860006F5F7F4F8F4F9F4F089557FD9058440FE4
:10187000551F59F05F3F71F04795880F97FB991FEF
:1018800061F09F3F79F087950895121613061406AC
:10189000551FF2CF4695F1DF08C016161706180639
:1018A000991FF1CF86957105610508940895E89414
:1018B000BB2766277727CB0197F908950E94E90B8C
:1018C00008F48FEF08950E94760C0C94240C0E946B
:1018D000160C38F00E941D0C20F0952311F00C948A
:1018E0000D0C0C94130C11240C94580C0E94350C04
:1018F00070F3959FC1F3950F50E0551F629FF00163
:10190000729FBB27F00DB11D639FAA27F00DB11D7B
:10191000AA1F649F6627B00DA11D661F829F222704
:10192000B00DA11D621F739FB00DA11D621F839F8B
:10193000A00D611D221F749F3327A00D611D231F61
:10194000849F600D211D822F762F6A2F11249F57AF
:1019500050409AF0F1F088234AF0EE0FFF1FBB1FB2
:10196000661F771F881F91505040A9F79E3F510571
:1019700080F00C940D0C0C94580C5F3FE4F3983EEF
:10198000D4F3869577956795B795F795E7959F5F1B
:10199000C1F7FE2B880F911D9695879597F90895AD
:1019A000A1E21A2EAA1BBB1BFD010DC0AA1FBB1F63
:1019B000EE1FFF1FA217B307E407F50720F0A21BD5
:1019C000B30BE40BF50B661F771F881F991F1A9442
:1019D00069F760957095809590959B01AC01BD016C
:0819E000CF010895F894FFCF38
:1019E80031313A35343A3535004665622032352092
:0619F80032303232000023
:00000001FF
